:100000000C9434000C943E000C943E000C943E0082
:100010000C943E000C943E000C943E000C943E0068
:100020000C943E000C943E000C943E000C943E0058
:100030000C943E000C943E000C943E000C943E0048
:100040000C943E000C943E000C943E000C943E0038
:100050000C943E000C943E000C943E000C943E0028
:100060000C943E000C943E0011241FBECFEFD8E04C
:10007000DEBFCDBF0E9440000C946E000C940000C7
:1000800082E284B980E48093800089E080938100DB
:1000900082ED90E0909389008093880042ED50E0DB
:1000A00020E931E0509389004093880080E197E295
:1000B000F9013197F1F70197D9F71C9B02C02D9AEE
:1000C00001C02D98109289001092880088EE93E06C
:1000D000F9013197F1F70197D9F7E4CFF894FFCF01
:00000001FF
