:100000000C9434000C9449000C9449000C94490061
:100010000C9449000C9449000C9449000C9449003C
:100020000C9449000C9449000C9449000C9449002C
:100030000C9449000C9449000C9449000C9449001C
:100040000C9449000C9449000C9449000C9449000C
:100050000C9449000C9449000C9449000C944900FC
:100060000C9449000C94490011241FBECFEFD8E036
:10007000DEBFCDBF17E0A0E0B1E0E6E7F1E002C0EF
:1000800005900D92A432B107D9F70E9477000C9425
:10009000B9000C940000992787FD9095E3E2F1E008
:1000A0009C01220F331F280F391FD901AA0FBB1F34
:1000B000AE0FBF1F8C9185B940E85EE3CA0101977E
:1000C000F1F72F5F3F4F220F331FE20FF31F8081A5
:1000D00085B9CA010197F1F714968C9185B9CA01C7
:1000E0000197F1F715B8CA010197F1F70895CF9379
:1000F000DF938FE184B9C0E0D0E0FE01E050FF4F14
:1001000080810E944B00CE01019667E270E00E9460
:100110009200EC018732910584F380E090E0DF915A
:10012000CF91089597FB092E07260AD077FD04D0BA
:100130000CD006D000201AF4709561957F4F089579
:10014000F6F7909581959F4F0895AA1BBB1B51E12F
:1001500007C0AA1FBB1FA617B70710F0A61BB70B37
:10016000881F991F5A95A9F780959095BC01CD01DC
:060170000895F894FFCF92
:1001760057494B544F52204144414D534B4920203F
:100186002020202020202020202020202020202069
:100196002020001500150015001500150015001586
:1001A60000150015001500150015001500150015A1
:1001B6000015001500150015001500150015001591
:1001C6000015001500150015001500150015001581
:1001D6000015001500150015001500150015001571
:1001E6000015001500150015001500150015001561
:1001F6000015001500150015001500150015001551
:100206000015001500150015001500150015001540
:100216000015001500150015001500150015001530
:100226000015001500150015001500150015001520
:100236000015001500150015001500150015001510
:100246000015001500150015001500150015001500
:1002560000150000000000000000001D000000184E
:100266000000001D001F000A001F0009001F0012E9
:10027600001300050019001F0015000500000018F6
:1002860000000000000E00110011000E0000001416
:10029600000800140004000E000400000003000023
:1002A6000004000400040000000100000003000434
:1002B6000018000E0011000E0009001F00010013B7
:1002C6000015000900110015001F001C0004001F86
:1002D600001D00150016000F00150017001300146E
:1002E6000018001F0015001F001D0015001F00004C
:1002F600000A00000000000B00000004000A0011C4
:10030600000A000A000A0011000A00040010001585
:10031600001C001F0011001D001F0014001F001FFD
:100326000015000A000E00110011001F0011000E3A
:10033600001100150015001100140014000E001124
:100346000017001F0004001F0011001F001100030A
:100356000001001F001F0004001B001F0001000118
:10036600001F0008001F001F0010001F001F0011C3
:10037600001F001F0014001C001F001F0001001FAB
:100386000014000B0009001500120010001F0010D9
:10039600001F0001001F001F0001001E001F0002B9
:1003A600001F001B0004001B001C0007001C00139C
:1003B60000150019001F00110011001800040003A9
:1003C60000110011001F00080010000800010001C4
:1003D6000001001000080000000300050007001FD0
:1003E6000005000200020005000500020005001FCE
:1003F6000006000B000D0004001F00140005000D90
:10040600000E001F0004000300000017000000019A
:1004160000010016001F000200050011001F000168
:100426000007000600070007000400070002000599
:1004360000020007000A00040004000A0007000F7B
:10044600000400040005000F000A0008001F000851
:100456000006000100070006000300060005000272
:10046600000500090005000E000B000F000D00043A
:10047600001B00110000001F00000011001B0004FB
:10048600000800040002001F001F001F00000000FB
:100496000000000000000000000000000000000056
:1004A6000000000000000000000000000000000046
:1004B6000000000000000000000000000000000036
:1004C6000000000000000000000000000000000026
:04079600000000005F
:00000001FF
